:100000000C943E000C945B000C945B000C945B0021
:100010000C945B000C945B000C945B000C945B00F4
:100020000C945B000C945B000C945B000C945B00E4
:100030000C945B000C945B000C945B000C945B00D4
:100040000C945B000C945B000C945B000C945B00C4
:100050000C945B000C945B000C945B000C945B00B4
:100060000C945B000C945B00230429042F043504DA
:100070003B04460451045C046704720411241FBE4F
:10008000CFEFD8E0DEBFCDBF11E0A0E0B1E0E4ECFF
:10009000F0E102C005900D92A631B107D9F721E039
:1000A000A6E1B1E001C01D92AF3AB207E1F70E94AC
:1000B0003D030C9460080C940000CF93C62F27B129
:1000C0002F7C27B9643079F018F4613031F023C007
:1000D000603191F06034C9F01EC0E9EBF0E020819E
:1000E0002C7F20831EC0E9EBF0E020812D7F208350
:1000F00020812160208315C0E9EBF0E020812E7F74
:1001000020832081226020830CC0E9EBF0E0208175
:100110002360208306C0E9EBF0E020812C7F208360
:10012000C1E09C0140E050E060E074E284EF90E0C8
:100130000E940D05CA01B901605171098109910937
:100140002C2F30E0220F331F032E000C440B550BD5
:100150000E940D052093B800ECEBF0E080818460F4
:100160008083CF91089584EA8093BC008091BC0085
:100170008823E4F78091B90081E0089584E98093B1
:10018000BC008091BC0084FDFCCF08958093BB002F
:1001900084E88093BC008091BC008823E4F78091C0
:1001A000B900887F883131F0883231F0803429F409
:1001B00081E0089581E0089581E00895DC016623DF
:1001C00031F0ECEBF0E090819064908305C0ECEBB3
:1001D000F0E090819F7B9083ECEBF0E09081906861
:1001E00090839091BC009923E4F79091B900987F97
:1001F000983511F0903529F48091BB008C9381E003
:100200000895892F0895CF93DF9394EA9093BC00CB
:100210009091BC009923E4F79091B900987F9830B1
:1002200009F05EC090E0880F991F81608093BB0049
:1002300084E88093BC008091BC008823E4F7EB0144
:100240008091B900887F883429F40E94BE0081E043
:1002500090E048C08091B900887F803429F00E94E6
:10026000BE0081E090E03EC084E88093BC008091B5
:10027000BC008823E4F78091B900887F883551F06D
:100280008091B900887F803529F00E94BE0081E00E
:1002900090E028C09091BB0084E88093BC008091DE
:1002A000BC008823E4F78091B900887F883551F03D
:1002B0008091B900887F803529F00E94BE0081E0DE
:1002C00090E010C02091BB00892F90E0982F8827E4
:1002D000822B998388830E94BE008881998102C005
:1002E00081E090E0DF91CF91089580FF04C09BB141
:1002F00090619BB903C09BB19F7E9BB981FF04C0F5
:100300009BB190629BB903C09BB19F7D9BB982FF5B
:1003100004C09BB190649BB903C09BB19F7B9BB908
:1003200083FF04C08BB180688BB908958BB18F7740
:100330008BB9089598B19E7F98B90E94750188B1D4
:10034000826088B98FE79EE30197F1F700C0000053
:1003500088B18D7F88B908958AB1806F8AB987B1D5
:10036000836087B91BB880E00E9475012FEF89EF89
:1003700090E0215080409040E1F700C0000083E011
:100380000E949A018FE19EE40197F1F700C00000FE
:1003900083E00E949A018FED9BEA0197F1F700C07C
:1003A000000083E00E949A0182E00E949A0182E0AC
:1003B0000E949A0188E00E949A0180E00E949A01BE
:1003C0008CE00E949A0180E00E949A0186E00E94DF
:1003D0009A0180E00E949A0181E00E949A010895AA
:1003E000CF93C82FCF7091E098B982958F700E94FB
:1003F000750188B1826088B98FE79EE30197F1F7B4
:1004000000C0000088B18D7F88B98C2F0E947501D3
:1004100088B1826088B98FE79EE30197F1F700C049
:10042000000088B18D7F88B9CF9108950F931F93F5
:10043000CF93DF938C01C0E0D0E003C00E94F001B5
:100440002196F801EC0FFD1F80818111F7CFDF911C
:10045000CF911F910F910895CF93613059F4815836
:10046000C82FCF7082958F700E949A018C2F0E94A6
:100470009A010CC0623051F48154C82FCF7082951C
:100480008F700E949A018C2F0E949A01CF9108953B
:100490000E94B30081E6809322010E94C600813051
:1004A00011F00E94BE0060E08AE191E00E94DE004F
:1004B0000E94BE0008958AB184608AB98BB18B7F97
:1004C0008BB987B1846087B988B18B7F88B984B1D3
:1004D000816084B985B18E7F85B984B1886084B923
:1004E00085B1877F85B984B1806184B985B18F7EFC
:1004F00085B9789408950E94B30081EA809322011F
:100500000E94C600813019F00E94BE00089560E08C
:1005100089E191E00E94DE00813019F00E94BE0066
:1005200008950E94BE0008950E94B30081EA80935E
:1005300022010E94C600813019F00E94BE00089579
:1005400060E088E191E00E94DE00813019F00E94B5
:10055000BE0008950E94BE0008950E94B30080EA84
:10056000809322010E94C600813011F00E94BE00DB
:1005700080911A010E94C600813011F00E94BE00D5
:100580000E94BE0008950E94B30080EA8093220179
:100590000E94C600813011F00E94BE0080912101AE
:1005A0000E94C600813011F00E94BE000E94BE0071
:1005B00008950E94B30080EA809322010E94C60041
:1005C000813011F00E94BE00809117010E94C60088
:1005D000813011F00E94BE000E94BE000895CF93AA
:1005E000DF93FC019B01CB0164E670E00E94F904FB
:1005F000605D6083CAE0D0E0C901BE010E94F904D9
:10060000282FCB01BE010E94F904805D8183205D0B
:1006100022831382DF91CF910895FC019B01CB01CE
:100620006AE070E00E94F9042A3031054CF480E35E
:100630008083205D218383E682838DE6838308C0E7
:10064000605D6083805D818383E682838DE6838342
:10065000148208950E94B30081E8809322010E94D1
:10066000C600813011F00E94BE0060E087E191E099
:100670000E94DE000E94BE0008950E945B0220E0FE
:1006800034E040E061E085E00E94150461E080EA2A
:1006900096E80E945D000E94AC0161E081E00E944A
:1006A0002C0280E091E00E94160261E08CE00E9442
:1006B0002C0285E091E00E94160261E086E00E9433
:1006C0002C028AE091E00E9416020E94480260918A
:1006D0001A0170E087EA91E00E94EF0262E08CE08C
:1006E0000E942C0287EA91E00E9416020E942A03CF
:1006F0006091170170E083E291E00E940D0362E0D7
:1007000081E00E942C0283E291E00E9416020E9486
:10071000AD020E94C3020E94D90280911901882370
:1007200019F08130C1F021C085B1877F85B98091F2
:100730001A01843640F48BB184608BB98AE190E071
:100740000E94F40412C08BB18B7F8BB986E290E0DB
:100750000E94F4040AC085B1886085B98BB18B7F93
:100760008BB986E290E00E94F404809118018823FE
:1007700019F0813019F128C085B18F7E85B980913B
:1007800021018D3120F090911601992321F0909153
:100790001901913339F485B1816085B981E0809385
:1007A000160112C08C3180F480911601882361F00B
:1007B00085B18E7F85B91092160106C085B1806122
:1007C00085B985B1816085B96BE171E088E40E94EB
:1007D000030180931B0190931C019093210162E01F
:1007E00086E00E942C02809121011F928F9380E16C
:1007F00091E09F938F931F9280E88F9387E291E01F
:100800009F938F930E94680587E291E00E941602F1
:100810000E947B020E9494028DB79EB708960FB685
:10082000F8949EBF0FBE8DBF50CF0F931F93D90179
:10083000082F10E00A30110508F05EC0F801EC5CEA
:10084000FF4F0C942C05E0E8F0E0908191609083DC
:1008500053C0E0E8F0E09081926090834DC0E0E802
:10086000F0E090819360908347C0E1E8F0E09081F0
:100870009061908341C0E1E8F0E0908190619083C5
:10088000E0E8F0E090819860908336C0E1E8F0E025
:10089000908198609083E0E8F0E09081916090838F
:1008A0002BC0E1E8F0E0908198609083E0E8F0E010
:1008B00090819260908320C0E1E8F0E090819860A0
:1008C0009083E0E8F0E090819360908315C0E1E8C8
:1008D000F0E0908198619083E0E8F0E09081926090
:1008E00090830AC0E1E8F0E0908198619083E0E8AD
:1008F000F0E090819360908351E02BEF280F22303D
:1009000008F050E031E0873009F030E091E08830C5
:1009100009F090E021E0893009F020E0352B932B9D
:1009200011F4222381F1442319F04130B9F02BC096
:10093000662341F0613059F4E0E8F0E0808180689E
:10094000808305C0E0E8F0E08081806C808384B122
:10095000826084B985B18D7F85B915C0662341F069
:10096000613059F4E0E8F0E080818062808305C066
:10097000E0E8F0E080818063808384B1846084B9A2
:1009800085B18B7F85B9A034B105D1F028F41097DB
:1009900059F0189779F025C0A11581E0B807B1F09A
:1009A000A115B440C9F01DC0E1E8F0E0808181608C
:1009B000808317C0E1E8F0E080818260808311C00D
:1009C000E1E8F0E08081836080830BC0E1E8F0E043
:1009D00080818460808305C0E1E8F0E080818560EB
:1009E00080831F910F9108959093890080938800D0
:1009F000089597FB072E16F4009407D077FD09D0D1
:100A00000E94320507FC05D03EF4909581959F4FDA
:100A10000895709561957F4F0895052E97FB1EF4FC
:100A200000940E94240557FD07D00E94460507FC4C
:100A300003D04EF40C9424055095409530952195A3
:100A40003F4F4F4F5F4F08959095809570956195FA
:100A50007F4F8F4F9F4F0895EE0FFF1F0590F4912A
:100A6000E02D0994AA1BBB1B51E107C0AA1FBB1FA5
:100A7000A617B70710F0A61BB70B881F991F5A952A
:100A8000A9F780959095BC01CD010895A1E21A2E99
:100A9000AA1BBB1BFD010DC0AA1FBB1FEE1FFF1F22
:100AA000A217B307E407F50720F0A21BB30BE40B72
:100AB000F50B661F771F881F991F1A9469F76095B9
:100AC0007095809590959B01AC01BD01CF01089573
:100AD000AEE0B0E0EEE6F5E00C9437080D891E8933
:100AE0008F89988D26E02C831A83098397FF02C093
:100AF00080E090E801979E838D83AE01455E5F4F55
:100B0000698D7A8DCE0101960E9498054D815E8196
:100B100057FD0AC02F813885421753070CF49A01FC
:100B2000F801E20FF31F10822E96E4E00C945308B4
:100B3000ABE0B0E0EEE9F5E00C9429086C017B0134
:100B40008A01FC0117821682838181FFCCC1CE010C
:100B500001963C01F6019381F70193FD859193FF86
:100B600081917F01882309F4BAC1853239F493FD5C
:100B7000859193FF81917F01853229F4B60190E040
:100B80000E948F07E7CF912C212C312CFFE1F31528
:100B9000D8F08B3279F038F4803279F08332A1F4D6
:100BA000232D20611DC08D3261F0803369F4232D27
:100BB000216016C0832D8260382EE32DE4603E2E26
:100BC0002AC0F32DF8601DC037FC2DC020ED280F82
:100BD0002A3040F08E32B9F436FC81C1232D2064D6
:100BE000322E19C036FE06C08AE0989E200D1124D0
:100BF000922E11C0EAE02E9E200D1124222EF32DFC
:100C0000F0623F2E08C08C3621F4832D8068382E88
:100C100002C0883641F4F70193FD859193FF8191DD
:100C20007F018111B3CF982F9F7D9554933028F485
:100C30000C5F1F4F9FE399830DC0833631F08337DC
:100C400071F0833509F059C021C0F8018081898392
:100C50000E5F1F4F88248394912C530113C02801E9
:100C6000F2E04F0E511CF801A080B18036FE03C0A7
:100C7000692D70E002C06FEF7FEFC5010E9484070D
:100C80004C018201F32DFF773F2E16C0280122E090
:100C9000420E511CF801A080B18036FE03C0692DC0
:100CA00070E002C06FEF7FEFC5010E9479074C0131
:100CB000F32DF0683F2E820133FC1BC0822D90E0A3
:100CC00088169906B0F4B60180E290E00E948F0782
:100CD0002A94F4CFF50137FC859137FE81915F01AD
:100CE000B60190E00E948F0721102A9421E0821A19
:100CF00091088114910471F7E8C0843611F08936A7
:100D000041F5F80137FE07C06081718182819381CE
:100D10000C5F1F4F08C060817181072E000C880B8B
:100D2000990B0E5F1F4FF32DFF763F2E97FF09C0E3
:100D300090958095709561957F4F8F4F9F4FF0688C
:100D40003F2E2AE030E0A3010E94CB07882E8618B0
:100D500045C0853731F4232D2F7EB22E2AE030E0B6
:100D600025C0932D997FB92E8F36C1F018F48835A0
:100D700079F0B5C0803719F0883721F0B0C0E92F7D
:100D8000E061BE2EB4FE0DC0FB2DF460BF2E09C085
:100D900034FE0AC0292F2660B22E06C028E030E0BB
:100DA00005C020E130E002C020E132E0F801B7FEEA
:100DB00007C060817181828193810C5F1F4F06C0E3
:100DC0006081718180E090E00E5F1F4FA3010E945F
:100DD000CB07882E8618FB2DFF773F2E36FE0DC0E1
:100DE000232D2E7FA22E891458F434FE0BC032FC22
:100DF00009C0832D8E7EA82E05C0B82CA32C03C05D
:100E0000B82C01C0B92CA4FE0FC0FE01E80DF11DE5
:100E10008081803321F49A2D997EA92E09C0A2FEEB
:100E200006C0B394B39404C08A2D867809F0B394B5
:100E3000A3FC11C0A0FE06C0B21488F4280C922CAA
:100E40009B180EC0B21460F4B60180E290E00E94DC
:100E50008F07B394F7CFB21418F42B1802C0982C54
:100E6000212CA4FE10C0B60180E390E00E948F0701
:100E7000A2FE17C0A1FC03C088E790E002C088E58D
:100E800090E0B6010CC08A2D867859F0A1FE02C010
:100E90008BE201C080E2A7FC8DE2B60190E00E94E7
:100EA0008F07891438F4B60180E390E00E948F0721
:100EB0009A94F7CF8A94F301E80DF11D8081B60171
:100EC00090E00E948F078110F5CF222009F442CED6
:100ED000B60180E290E00E948F072A94F6CFF601D7
:100EE0008681978102C08FEF9FEF2B96E2E10C94F1
:100EF0004508FC010590615070400110D8F78095BD
:100F000090958E0F9F1F0895FC01615070400190D5
:100F10000110D8F7809590958E0F9F1F08950F931D
:100F20001F93CF93DF93FB01238121FD03C08FEF3C
:100F30009FEF2CC022FF16C0468157812481358146
:100F40004217530744F4A081B1819D012F5F3F4FA9
:100F5000318320838C93268137812F5F3F4F3783E6
:100F6000268314C08B01EC01FB010084F185E02D88
:100F70000995892BE1F6D80116968D919C911797CA
:100F8000019617969C938E931697CE01DF91CF9181
:100F90001F910F910895FA01AA27283051F12031AD
:100FA00081F1E8946F936E7F6E5F7F4F8F4F9F4FFD
:100FB000AF4FB1E03ED0B4E03CD0670F781F891F3F
:100FC0009A1FA11D680F791F8A1F911DA11D6A0F0D
:100FD000711D811D911DA11D20D009F468943F91C0
:100FE0002AE0269F11243019305D3193DEF6CF01BF
:100FF0000895462F4770405D4193B3E00FD0C9F785
:10100000F6CF462F4F70405D4A3318F0495D31FDF1
:101010004052419302D0A9F7EACFB4E0A695979544
:10102000879577956795BA95C9F70097610571051A
:1010300008959B01AC010A2E069457954795379564
:101040002795BA95C9F7620F731F841F951FA01DBE
:1010500008952F923F924F925F926F927F928F925C
:101060009F92AF92BF92CF92DF92EF92FF920F9337
:101070001F93CF93DF93CDB7DEB7CA1BDB0B0FB641
:10108000F894DEBF0FBECDBF09942A8839884888FE
:101090005F846E847D848C849B84AA84B984C88494
:1010A000DF80EE80FD800C811B81AA81B981CE0F8B
:1010B000D11D0FB6F894DEBF0FBECDBFED01089570
:0410C000F894FFCFD2
:1010C4004469733A004144433A0074656D703A00D0
:0610D4002530326400002B
:00000001FF
