:100000000C9434000C9446000C9446000C9446006A
:100010000C9446000C9446000C9446000C94460048
:100020000C9446000C9446000C9446000C94460038
:100030000C9446000C9446000C9446000C94460028
:100040000C9446000C9446000C9446000C94460018
:100050000C9446000C9446000C9446000C94460008
:100060000C94D8000C94460011241FBECFEFD8E0AA
:10007000DEBFCDBF21E0A0E0B1E001C01D92A23003
:10008000B207E1F70E948F000C9434010C94000039
:1000900097B19F7C97B990E0880F991F8093BA0021
:1000A00085E48093BC000895F8948AB188608AB989
:1000B0008AB18B7F8AB98AB180618AB98BB18F7E10
:1000C0008BB980E40E944800789408958BB1877FB3
:1000D0008BB98AE08A95F1F700C08BB188608BB943
:1000E00085E38A95F1F700008BB1877F8BB94A9B36
:1000F000FECF20E030E006C02F5F3F4F85E08A95BD
:10010000F1F700004A99F8CFAFE9B6E40E94250163
:10011000929582958F7089279F70892708950E94F4
:1001200054000E9466009093010180930001809129
:100130000001909101010A9728F58BB180618BB97C
:100140002FE785EB91E0215080409040E1F700C01F
:1001500000008BB18F7E8BB92FE785EB91E02150AA
:1001600080409040E1F700C000008BB18F7E8BB9DA
:100170002FE785EB91E0215080409040E1F700C0EF
:1001800000000CC08BB18F7E8BB92FE785EB91E01F
:10019000215080409040E1F700C000002FEF83EC39
:1001A00099E0215080409040E1F700C00000B9CFB5
:1001B0001F920F920FB60F9211248F939F93EF937C
:1001C000FF938091B900887F8039C9F038F4803777
:1001D00081F08038A1F0803651F50BC0883BA9F042
:1001E00018F4883A91F023C0803CD9F0883CC9F0DB
:1001F0001EC0ECEBF0E08081806C80831DC0ECEBD6
:10020000F0E08081806C808317C080910001909124
:1002100001018093BB00ECEBF0E08081806C808377
:100220000BC0ECEBF0E08081806C808305C0ECEBD0
:10023000F0E0808180698083FF91EF919F918F91A1
:100240000F900FBE0F901F901895A29FB001B39F03
:10025000C001A39F700D811D1124911DB29F700DCF
:0C026000811D1124911D0895F894FFCF1A
:00000001FF
